:020000040800F2
:10000000800A0020414F0008494B00084B4B000874
:100010004D4B00084F4B0008514B000800000000FA
:10002000000000000000000000000000534B00082A
:10003000554B000800000000574B0008594B0008C2
:10004000814F0008854F0008894F0008DD4C0008EB
:10005000914F0008954F0008D74C00089D4F0008AD
:10006000A14F0008A54F0008A94F0008AD4F000898
:10007000B14F0008B54F0008B94F0008BD4F000848
:10008000C14F0008C54F0008C94F0008CD4F0008F8
:10009000D14F0008D54F0008D94F0008DD4F0008A8
:1000A000E14F0008E54F0008E94F0008ED4F000858
:1000B000F14F0008F54F0008F94F0008FD4F000808
:1000C0000150000805500008095000080D500008B4
:1000D00011500008834D0008195000081D500008F9
:1000E0002150000825500008295000080D4C000838
:1000F000C14C0008022000F0C6FF00F02BFFDFF823
:100100005C0C00684FF47A71B0FBF1F0B0F1807FC5
:100110000FD2DFF84C1C0002000A401E4860F0209D
:1001200081F8130D0020886007200860D02081F836
:10013000130D01F067F800F019FE01F001FA00F06C
:10014000D1FE01F0FBFA01F08BFC01F015FFDFF8A6
:10015000140CDFF8044C21465FF0030210F8013B59
:100160008B7510F8013BCB7510F8013B0B7610F83E
:10017000013B4B76091D521E7FF4F0AF01F064FF86
:1001800000F00AF820790028F8D000202071DFF86C
:10019000D81B02F02CF9F1E730B581B001F0B2FBC9
:1001A00001F01EFB01F04CFE00F076F8DFF8A84BE2
:1001B0002068C10523D520F480702060052084F8D4
:1001C00030000C2084F8310004F21600606304F162
:1001D000300001F09EFC94F83C00032803D2401C40
:1001E00084F83C000BE0206840035CBF0120E07015
:1001F000002084F83C00206820F480202060042047
:1002000001F013FC18B9042001F063FB28B1206849
:1002100080F4804040F400202060DFF8745C2068A7
:10022000400409D5012001F002F9022001F0FFF895
:100230000120287028760AE0012001F000F9022050
:1002400001F0FDF8012085F8400085F85800E07ABB
:1002500030B92068400403D4012085F8540001E03F
:1002600001202875E07808B900F0ECFDE07801285D
:1002700008BF00F00FFEDFF8D40C21680140814276
:1002800005D101F0A5FD206820F00400206001B038
:10029000BDE8304002F072BBF0B581B0DFF8B84A7B
:1002A000E07A052800F21285DFE810F006008300EE
:1002B000C10001020503DF03002001F0C0F80620A1
:1002C00001F0BDF8082001F0C7F8DFF8846A0020CB
:1002D000307030733071DFF87C7A38713870DFF845
:1002E000885A287801F01DF8687801F04BF801F081
:1002F0001EF918B1072001F09AF802E0072001F07A
:100300009EF8022001F091FB18B9022001F0E1FAF9
:1003100078B12878A0716878E071206820F4803086
:1003200020600220E07200206071206840F400200C
:100330002060032001F079FB10B901F0CAFA70B116
:100340000120A072DFF8085C287200202873287151
:1003500028700320E072206840F400202060002014
:1003600001F063FB18B9012001F0B3FA78B1042061
:10037000A072DFF8DC5B002028722873287101204E
:1003800028700320E072206840F4002020600120E3
:1003900001F04BFB28B9032001F09BFA002800F084
:1003A00095840120E072206840F40020206001B0B4
:1003B000F0BD002001F043F8062001F040F80820CD
:1003C00001F04AF8DFF8A059287800F0AAFF687811
:1003D00000F0D8FF01F0ABF818B1072001F027F8C2
:1003E00002E0072001F02BF8062001F020F8DFF8EA
:1003F00060690020307030733071DFF858793871DF
:1004000038700120307001F010FB28B9032001F092
:1004100060FA002800F05A840020E072062001F003
:100420000EF8206840F40020206001B0F0BD0720E5
:1004300000F0FDFFDFF81869002030703073307174
:10044000DFF81079387138700120387130713073ED
:100450002068C00300F19580E07900F093FF03204D
:1004600001F0F0FA48B901F0EDFA30B901F031FAD3
:1004700018B9012001F02DFA00E0012084F83D00B8
:1004800001F055F894F83D10084314BFA0795820A6
:1004900000F047FF6079401C6071032001F0D2FA40
:1004A000A8B901F0CFFA90B9042001F0BEFA70B9F2
:1004B000042001F0C7FA50B901F00BFA38B9012055
:1004C00001F007FA18B9042001F003FA28B100205E
:1004D0006071206840F400202060022001F0A5FA3D
:1004E00030B9022001F0F5F910B96079BD280ED3BA
:1004F000206880F4803020600020607102F0ACFA47
:100500006079BD2803D2206840F4002020600320D9
:1005100001F08BFA50B9032001F09BFA10B120785A
:10052000400603D4002001F0D4F978B1206820F00F
:100530004000206000206071A07917280CBF0020C7
:10054000401CA071206840F400202060002001F0D1
:100550006CFA58B901F07DFA10B12078400605D444
:10056000012001F0B6F9002800F0B083206820F0E7
:1005700040002060A07900280CBF1720401EA07109
:1005800091E1A07900F0CDFE032001F05BFA48B9BB
:1005900001F058FA30B901F09CF918B9012001F0C6
:1005A00098F900E0012084F83D0000F0C0FF94F8C5
:1005B0003D10084314BFE079582000F0E3FE607955
:1005C000401C6071032001F03DFAA8B901F03AFA2D
:1005D00090B9042001F029FA70B9042001F032FA30
:1005E00050B901F076F938B9012001F072F918B963
:1005F000042001F06EF928B100206071206840F4F9
:1006000000202060022001F010FA30B9022001F031
:1006100060F910B96079BD280FD30022E179A07983
:1006200000F013FE0020E07202F021FA6079BD288C
:1006300003D2206840F400202060032001F0F5F987
:1006400050B9032001F005FA10B12078400603D418
:10065000002001F03EF978B1206820F040002060D1
:1006600000206071E0793B280CBF0020401CE07145
:10067000206840F400202060002001F0D6F958B92D
:1006800001F0E7F910B12078400605D4012001F00F
:1006900020F9002800F01A83206820F04000206034
:1006A000E07900280CBF3B20401EE071FBE0DFF842
:1006B000A0660020307030733071DFF898763871A2
:1006C00038700120307130733871002000F0B7FEAF
:1006D000072000F0B4FE002000F005FE032000F02B
:1006E00002FEA17A022000F0CDFD0A21012000F0D7
:1006F000C9FDA07A032802D300F01FFF01E000F03B
:1007000019FF00F0A9FEDFF84858032001F08DF929
:1007100018B901F0DEF800284FD0A07A042813D1D0
:100720000020A0722872287328712870052000F01C
:1007300093FE0020E07200F0C5FF0020307030739F
:1007400030713871387034E0401CC0B2401E03284C
:1007500026D8DFE800F01D150B020420A07200204F
:100760002872287328710120287022E00320A072CB
:10077000002028722873012028710020287018E0BA
:100780000220A0720020287201202873002004E0BB
:100790000120A0722872002028732871287008E0B8
:1007A0000020A0722872287328712870052000F09C
:1007B00053FE206840F400202060002001F035F94D
:1007C00020B9012001F085F8002847D0A07A01283F
:1007D0000BD10020A0722872287328712870052080
:1007E00000F03AFE0020E07234E0401EC0B2401E2D
:1007F000032826D8DFE800F01D150B020420A072A4
:1008000000202872287328710120287022E003201C
:10081000A0720020287228730120287100202870FF
:1008200018E00220A0720020287201202873002006
:1008300004E00120A072287200202873287128701B
:1008400008E00020A0722872287328712870052003
:1008500000F002FE206840F400202060012001F03A
:10086000E4F818B9032001F034F870B10020A07248
:100870002872287328712870052000F0EDFD0120F2
:10088000E072206840F400202060022001F0CDF8E2
:1008900028B9022001F01DF8002800F0178201207D
:1008A000E0710420E07200206071206840F40020B4
:1008B000206001B0F0BDDFF89C0401210171DFF878
:1008C000906431713173072000F0B1FD002000F019
:1008D000AEFD002000F056FD032001F0B3F848B94A
:1008E00001F0B0F830B900F0F4FF18B9012000F0C1
:1008F000F0FF00E0012084F83D0000F018FE94F8BD
:100900003D10084309D0E07900F00BFDE0790A289A
:1009100006D2002000F0E7FC02E0582000F001FDC4
:10092000A07A032802D300F008FE01E000F002FEE6
:1009300000F092FD6079401C6071032001F082F8A4
:10094000A8B901F07FF890B9042001F06EF870B9F1
:10095000042001F077F850B900F0BBFF38B901204E
:1009600000F0B7FF18B9042000F0B3FF28B1002051
:100970006071206840F400202060032001F055F8E9
:1009800050B9032001F065F810B12078800603D437
:10099000002000F09EFF78B1206820F02000206049
:1009A00000206071E0790F280CBF0120401CE0712D
:1009B000206840F400202060002001F036F848B99B
:1009C00001F047F810B12078800603D4012000F030
:1009D00080FF78B1206820F0200020600020607146
:1009E000E07901280CBF0F20401EE071206840F420
:1009F00000202060012001F018F818B9032000F051
:100A000068FF80B10020A072DFF844552872287377
:100A100028712870052000F01FFD0120E072206879
:100A200040F400202060022000F0FFFF18B90220EF
:100A300000F04FFF28B10320E072206840F400204E
:100A400020606079BD28C0F041810520E072E07926
:100A5000C0EB00118800A082206820F400302060E4
:100A600001B0BDE8F04002F002B8B94E002030708D
:100A700030733071B74F3871387001203871307170
:100A80003073002000F02FFC032000F02CFC072026
:100A900000F0D5FCA17A022000F0F4FB0A2101202D
:100AA00000F0F0FB00F043FD18B1002000F0BFFCA7
:100AB00001E000F0C4FCA07A032802D300F03DFD61
:100AC00001E000F037FD00F0C7FCDFF8845403209C
:100AD00000F0ABFF18B900F0FCFE002847D0A07A68
:100AE00004280BD10020A072287228732871287066
:100AF000052000F0B1FC0020E07234E0401CC0B2E0
:100B0000401E032826D8DFE800F01D150B02042044
:100B1000A07200202872287328710120287022E01A
:100B20000320A07200202872287301202871002061
:100B3000287018E00220A07200202872012028737B
:100B4000002004E00120A072287200202873287180
:100B5000287008E00020A07228722873287128707D
:100B6000052000F079FC206840F40020206000207F
:100B700000F05BFF20B9012000F0ABFE002847D059
:100B8000A07A01280BD10020A07228722873287146
:100B90002870052000F060FC0020E07234E0401E68
:100BA000C0B2401E032826D8DFE800F01D150B0256
:100BB0000420A07200202872287328710120287058
:100BC00022E00320A07200202872287301202871DF
:100BD0000020287018E00220A07200202872012056
:100BE0002873002004E00120A072287200202873DE
:100BF0002871287008E00020A072287228732871DC
:100C00002870052000F028FC206840F400202060B7
:100C1000012000F00AFF18B9032000F05AFE70B15D
:100C20000020A0722872287328712870052000F017
:100C300013FC0120E072206840F4002020600220B4
:100C400000F0F9FE18B1022000F003FF18B10220F5
:100C500000F03FFE40B10320E072002000F0EFFB07
:100C6000206840F400202060022000F0F2FED0B1A5
:100C70003C26A08A90FBF6F0C0B200F052FBA08A9E
:100C800090FBF6F1C1EB0112A0EB8200C0B200F0C4
:100C900079FB00F04CFC18B1072000F0C8FB02E023
:100CA000072000F0CCFB206880030FD50020A07245
:100CB0002872287328712870052000F0CDFB0020D1
:100CC000E07201B0BDE8F04001F0C6BE01B0F0BD79
:100CD000401E032830D8DFE800F0020C18241E481C
:100CE000012181729A480172002101730171017022
:100CF0007047194802218172954800210172012133
:100D00000173002101710170704713480321817242
:100D10008F480021017201730121017100210170CE
:100D200070470D48042181728948002101720173C6
:100D300001710121017070470748002181728448C8
:100D40000172017301710170052000F085BB000084
:100D500084024042B48240422C0500200000002062
:100D600010E000E05000F81F3406002070B500F0DD
:100D70002DFC0121022001F096FFA84C02202071D9
:100D800060710020A0710120E07140202060A44D1E
:100D90002146284602F08CF8022020716071012063
:100DA000A0710020E071802020602146284602F0DA
:100DB0007FF807220621284602F040F90722072182
:100DC000284602F03BF90121084601F06CFF4FF480
:100DD00080502060012020710020E080012060719F
:100DE000904E2146304602F063F84FF48051304671
:100DF00002F0FEF80121032001F055FF16202060CB
:100E000001202071A071E07160712146304602F02E
:100E10004FF84FF4E04020602146284602F048F8A1
:100E20000121022001F03FFF4FF40040206000202C
:100E30002071E071012060712146284602F038F8E7
:100E4000BDE8704030B581B00121042001F02BFFD6
:100E5000724C0F20206000202071E0800120607122
:100E6000714D2146284602F023F80121042001F0AB
:100E70001AFF4FF40050206000202071E080012014
:100E800060712146284601B0BDE8304002F010B83C
:100E90001C83404230B581B00121042001F003FFE2
:100EA0005E4C0F202060012020710020E080012096
:100EB00060715D4D2146284601F0FAFF01210420B2
:100EC00001F0F1FE4FF4005020600120207100205D
:100ED000E080012060712146284601B0BDE8304025
:100EE00001F0E6BF30B581B00121102001F027FFED
:100EF0004E4C4F48006844F62061B0FBF1F0401EB4
:100F0000A08000202060E0804A4D2146284602F063
:100F10004FF90121284602F080FA012201212846DA
:100F200002F0FAF92B2020720A2060720120A072D0
:100F3000E07204F1080002F0F3FA0121284602F001
:100F4000A1F901B0BDE8304001F0C2BD04000800C5
:100F50008002414210B5384C01F006FE2070201D81
:100F600001F008FE212001F00EFF616960F300012D
:100F70006161292001F007FF616960F3410161614E
:100F8000312001F000FF616960F382016161392065
:100F900001F0F9FE616960F3C3016161492001F06C
:100FA000F2FE616960F304116161412001F0EBFE22
:100FB000616960F345116161592001F0E4FE6169E6
:100FC00060F3861161615A2001F0DDFE616960F312
:100FD000C71161615B2001F0D6FE616960F30821F1
:100FE00061615C2001F0CFFE616960F349216161BC
:100FF0005D2001F0C8FE616960F38A2161615E20B5
:1010000001F0C1FE616960F3CB2161615F2001F0F5
:10101000BAFE616960F30C31616110BD5C060020AD
:101020000004024000000240000802405006002078
:10103000000000200010004010060020FEE710B461
:1010400050F8041B81B102681218001D50F8043BCF
:10105000DC0744BFA9F10104E31852F8044B43F83C
:10106000044B091FF9D1EBE710BC704710B5040021
:1010700018BF012C04D086210FF25000FFF7DEFFCD
:101080001048046010BD30B581B004460025012C25
:1010900018BF022C0DD0042C18BF082C09D0102C1E
:1010A00018BF202C05D040F20F310FF22000FFF7BF
:1010B000C5FF05480068204218BF0125284601B039
:1010C00030BD000020000E4204700040433A5C3006
:1010D000304669726D77617265576F726B696E67C2
:1010E00041436861755C576F726B696E675C47540A
:1010F00053565F52616E6765486F6F642D426C6135
:10110000636B436F6E74726F6C2D46696E616C32E7
:101110005C4C69627261726965735C53544D333221
:101120004C3178785F5374645065726970685F44BD
:1011300072697665725C7372635C73746D33326C62
:101140003178785F7077722E6300000000B583B04D
:10115000012001F0F7FC492001F015FE0028FAD02B
:101160004FF4803001F05BFD012001F08DFD01F0B6
:101170001AF841487F214160FF2181600021016010
:1011800000F0BCFF002001F0A5F94FF4801002F040
:10119000B1FA4FF48010019000208DF8080008206B
:1011A0008DF8090001208DF80A0001A802F042FA2A
:1011B00003208DF8000001208DF8010000208DF83B
:1011C000020001208DF8030000A802F0A9F92B48C5
:1011D000E0210170002001F045F9FF2001F065F9E0
:1011E0004FF4804001F0EEF94FF4801002F082FAE3
:1011F00001214FF4804001F0ADF9012001F06AF9BE
:1012000003B000BD00B581B001214FF0805001F066
:1012100096FD0120FFF72AFFFFF798FF18480521E8
:101220004160012101720D21417203210160002101
:10123000C1730221017319214173002181730020C0
:1012400001B05DF804EBFFF711BF70B504460D4621
:1012500016460120FFF70AFF09480021C1730473F5
:101260004573867300F10C01002000F0BBFF0020E5
:10127000BDE87040FFF7FABE3806002003E400E046
:1012800028060020F0B40FF2A842895C0FF29442C5
:1012900002EB4002507892789400DFF8502401F07D
:1012A00001031355DFF848344D1005F001051D55B5
:1012B000DFF840548E1006F001062E55CE1006F0D1
:1012C0000106DFF834743E5580000C1104F001046F
:1012D0002C548C1104F001041C54491101F001013B
:1012E0001154F0BC704770B40FF2384101EB40006C
:1012F000417880788000DFF8F42300231354DFF86E
:10130000F03300241C54DFF8EC4300252554DFF8AB
:10131000E85300262E54880026541E54165470BCE0
:10132000704710B518280FD20A2190FBF1F404EB96
:101330008401A0EB4101C9B20120FFF7A3FFE1B294
:101340000020BDE810409DE7DFF8B003002180F8E1
:10135000001380F8001280F80011017080F8FC1072
:1013600080F8FC1180F8FC1280F8081380F808124D
:1013700080F80811017280F8041180F8041280F8D6
:10138000041310BD10B53C280FD20A2190FBF1F4D4
:1013900004EB8401A0EB4101C9B20320FFF772FF07
:1013A000E1B20220BDE810406CE7DFF854030021F1
:1013B00080F8001380F8001280F80011017080F8A6
:1013C000FC1080F8FC1180F8FC1280F8201380F8E3
:1013D000201280F8201180F8201080F8041180F885
:1013E000041280F8041310BDC6480088C64900F0F6
:1013F000010281F82820C0F3800281F85420C0F354
:10140000400281F85C200206D20F0A70C0F38012FD
:1014100081F85020C0F3C00281F85021C0F30012BF
:1014200081F85022C0F3401081F850037047B5494D
:101430000A88012303FA00F010430880D4E7B14979
:10144000082808BF002005D00A88012303FA00F00D
:1014500022EA00000880C7E710B518B1022812D0B0
:1014600005D327E0A74C208840F0080027E0A54CD2
:1014700020884FF6F77108402080FFF7B5FF2088DD
:1014800040F0100022E09F4C20884FF6F771084092
:101490002080FFF7A9FF20884FF6EF7108402080D9
:1014A000FFF7A2FF208840F020002080BDE8104018
:1014B000FFF79ABF934C20884FF6F77108402080C1
:1014C000FFF792FF20884FF6EF7108402080FFF76A
:1014D0008BFF20884FF6DF7108402080BDE8104068
:1014E00082E78A488179491CC9B2082908BF0021CE
:1014F0008171817906299241D20FC2704179491CCC
:101500004171C9B2032904BF002141718178491C8E
:101510008170C9B2032909D1002181700179491C68
:101520000171C9B2032904BF0021017170477748D6
:10153000C0787047754800797047744840797047A3
:1015400000B585B001214FF4007001F0F8FB0020D8
:1015500000904FF4701001900C20029040200390F6
:101560000020049000A801F08DF8012001F04EF950
:101570004FF4E05001F0DBF9002001F075F9602034
:1015800001F052F901F03DF9012001F026F90120A6
:1015900001F0F8F90028FAD0102001F0F3F9002842
:1015A000FAD04FF48041002001F084F95548002121
:1015B0000180042001F0E6F90028FAD140215448C6
:1015C00002F0ECF801F0DAF905B000BD10B582B018
:1015D00001213F2001F067FB00A801F000FD4FF45E
:1015E0000740009002208DF804004A4C00A92046D4
:1015F00001F05EFC0B220821204601F01FFD0B22AA
:101600000921204601F01AFD0B220A21204601F093
:1016100015FD0B220F21204601F010FD4FF44E70F6
:10162000009002208DF804003B4C00A9204601F0F8
:101630003FFC0B220321204601F000FD0B22042178
:10164000204601F0FBFC0B220521204601F0F6FCB0
:101650000B220821204601F0F1FC0B220921204633
:1016600001F0ECFC4FF4F050009002208DF80400E3
:101670002A4C00A9204601F01BFC0B220921204620
:1016800001F0DCFC0B220A21204601F0D7FC0B22E2
:101690000B21204601F0D2FC0B220C21204601F048
:1016A000CDFC0420009002208DF804001C4C00A901
:1016B000204601F0FDFB0B220221204601F0BEFC7A
:1016C00002B010BD00B581B00E4800210180042099
:1016D00001F058F90028FAD140210D4802F05EF8D7
:1016E00001B05DF804EB01F049B9000080850442C7
:1016F000808404428083044280820442F482044253
:10170000A08204426A0500209C82044264060020F4
:10171000142400400000024000040240000802407F
:10172000000C0240111C1D1E1F070809101B0000A1
:101730003F065B4F666D7D077F6F7100DFF8A40188
:10174000DFF8A411016070470021C2685388883B0C
:101750005D2B43D2634B93F8D030042B10D191888A
:10176000203917293EBFD1880939092936D20021ED
:1017700001704FF0FF31416000210172012070477C
:10178000442B2BD39388423B2E2B27D202F2060206
:101790005FF02003B2F800C0ACF1090CBCF1090FF6
:1017A0001CD2B2F802C0ACF1160CBCF1110F0CD275
:1017B000490041F00101121D5B1EEBD12022027293
:1017C00041600021017001207047B2F802C0ACF105
:1017D000060CBCF1070F38BF4900ECD3002070475E
:1017E00010B5404C04F10800C4F8E00094F8D000B3
:1017F000C4F8E4002079032827D104F1D400FFF7CE
:10180000A3FFF8B1D4F8D8003849884246D0384907
:1018100088424AD0374988420DD0374988424BD058
:10182000364988423AD03649884230D0002020716B
:1018300084F8D00010BDD4F8F80040F00100C4F8DE
:10184000F8003FE0207184F8D0000020C4F8FC00CC
:10185000D4F8E80040084000C4F8E800D4F8EC00F0
:1018600040084000C4F8EC00D4F8F0004008400004
:10187000C4F8F000D4F8F40040084000C4F8F400C4
:10188000D4F8F80040084000C4F8F80010BDD4F8BF
:10189000F00040F00100C4F8F00013E0D4F8F400C8
:1018A00040F00100C4F8F4000CE0D4F8EC0040F083
:1018B0000100C4F8EC0005E0D4F8E80040F00100B5
:1018C000C4F8E80001F0C8F80020207184F8D000C6
:1018D00010BD044901EB800090F8E80000F0010021
:1018E00070470000C80300203C824042BF40FB0418
:1018F000AF50FB04A758FB047788FB046F90FB04F0
:101900006798FB04F0B581B0714C606940084000F5
:10191000606125466F4E05272868C10706D5400837
:10192000400040F00400286001F096F82868810724
:1019300044BF20F00600286028683178490704D5A4
:10194000410707D440F0010003E0410702D540F011
:10195000020028606069410855F8042B104300F02C
:10196000010050EA4100606114367F1ED4D101B0FD
:10197000F0BD574801684A0708D54278092A28BFB0
:1019800041F0080107D2511C417005E0002141706F
:10199000016821F00801016041684A0708D54279D1
:1019A000092A28BF41F0080107D2511C417105E006
:1019B00000214171416821F00801416081684A07B6
:1019C00008D5427A092A28BF41F0080107D2511CE4
:1019D000417205E000214172816821F008018160B7
:1019E000C1684A0708D5427B092A28BF41F008018F
:1019F00007D2511C417305E000214173C16821F0F9
:101A00000801C16001694A0708D5427C092A28BF3C
:101A100041F0080107D2511C417470470021417404
:101A2000016921F0080101617047294911F820007E
:101A300000F001007047264951F82000400800F0EE
:101A400001007047224951F82000800800F0010091
:101A500070471F4951F82000C00800F0010070478E
:101A600000B581B000F0CCFA1B48416841F0030199
:101A7000416001214172816941F0030181610121CD
:101A80004177C16A41F00301C162012180F8311040
:101A9000016C41F003010164012180F84510416DA2
:101AA00041F003014165012180F85910592180F866
:101AB000381080F839106FF0150180F83A10632261
:101AC00080F8602080F8612080F8621001B000BDCD
:101AD000F8050020CC040020C8040020DFF8001521
:101AE000C869C00514D48A69DFF8F80413788380C4
:101AF0000B7F23B1501C8861581E08777047CA6954
:101B000042F48072CA61002240F2277101F02CBFBA
:101B10007047F0B482B0DFF8C8143A220A70027835
:101B20004A7042788A70427822B30022531844687F
:101B3000145DDC70521CD2B243789A421ADA531800
:101B40004468145DDC70521CD2B243789A4211DAB8
:101B500053184468145DDC70521CD2B243789A4228
:101B600008DA53184468145DDC70521CD2B2437812
:101B70009A42DBDB027802F13A04A4B243782BB339
:101B80001C19A4B2002513F00306426806D0EDB27A
:101B9000AF5C3C19A4B26D1C761EF8D19B0815D021
:101BA000EDB2AE5C3419A4B26D1CEDB2AE5C34196A
:101BB000A4B26D1CEDB2AE5C3419A4B26D1CEDB2D2
:101BC000AE5C3419A4B26D1C5B1EE9D10472220A0A
:101BD000427242785218037AD37042785218437A8C
:101BE0001371427852180D235371427852180A2308
:101BF00093714078801D89610877C86920F48070EE
:101C0000C861012240F22771DFF8D80302B0F0BCAE
:101C100001F0AABEDFF8D003D0F85C23262190F8AB
:101C2000483390F846C301FB0C0C63445B1CC0F8BE
:101C30005C33DFF8B8C3BCF800C083F800C090F88C
:101C400000C0BCF1000F03D0BCF1010F16D041E081
:101C500019783A2910D10121017090F84813491CD4
:101C600080F848130021A0F84A13D0F8541321F447
:101C70008071C0F85413704700212DE01B780A2BA7
:101C800004BF12780D2A1CD190F8462301FB0201F3
:101C9000C97880F8541390F848339B1F99420DD1AE
:101CA000152A34BF511C002180F8461390F84513C3
:101CB000491C80F845130021017005E000210170E6
:101CC00002E090F84813491C80F84813D0F85413E8
:101CD000C90503D50021017080F848137047DFF86B
:101CE0000803B0F84A130B2906D3D0F8541341F473
:101CF0008071C0F854137047491CA0F84A1370470C
:101D000001460020B84A92F8453303B9704770B4D1
:101D1000262392F8474303FB0424A4780C7092F81E
:101D2000475303FB0525ED780D7292F8476303FBDB
:101D300006231B1D4B602B193A33A2F85A330C7A39
:101D40004B68E55CE418647805EB0424A2F858437A
:101D5000002491F808502DB3B2F85A53E65C751977
:101D6000A2F85A53641C0E7AE4B2B4421AD2E65C6A
:101D70007519A2F85A53641C0E7AE4B2B44211D217
:101D8000E65C7519A2F85A53641C0E7AE4B2B442A8
:101D900008D2E65C7519A2F85A53641C0D7AE4B2B5
:101DA000AC42D9D3B2F85A13B2F85833994208BFAB
:101DB000012092F84513491E82F8451392F8471303
:101DC000152934BF491C002182F8471370BC7047A5
:101DD00010B582B086480721017000A94160854A8C
:101DE000D17A8DF80010136800A99C0B04F001044F
:101DF0004C70D47A052C20D8DFE804F003030519D1
:101E00001319022116E01B0C03F001038B70937968
:101E1000CB70D2790A7101228DF805208A710721D1
:101E200008E0D2798A700122CA70042102E0927A15
:101E30008A7003214170FFF76CFE02B010BD0000F4
:101E400010B56D4C2046FFF75BFF002800F0938033
:101E50002078072800F28A80DFE800F08D8D8888DE
:101E600088528804634A106820F40020106060687B
:101E70004178136861F38E3313600178052900F20D
:101E80007A80DFE801F00306091C232A0020D072C3
:101E900010BD0120D07210BD0221D172817813686B
:101EA00061F310431360C078907161680979D17152
:101EB000002353710022BDE81040FFF7C6B903218B
:101EC000D1728078BDE81040FEF702BF0421D172C4
:101ED0008078D0710020507110BDD17A042908D1CA
:101EE000D179C1EB011399009182116821F400317D
:101EF00011600521D1728078BDE81040FEF7E8BE80
:101F000000203C4A11466368C35C81F82230401CC3
:101F1000491C0C28F7DB106840F48020106000207A
:101F2000917D92F82230994217D1401CC0B281189D
:101F30008B7D91F822108B420FD1401CC0B28118CA
:101F40008B7D91F822108B4207D1401CC0B28118C2
:101F50008B7D91F822108B42E7D0801890F82210E8
:101F6000807D81429B41DB0FD37010BD2348016807
:101F700049084900016010BD10B586B001214FF439
:101F8000804000F0B6FE4FF4165001900020029001
:101F9000ADF80C00ADF810000C20ADF80E00114C9F
:101FA00001A9204601F00EFC012240F225512046F5
:101FB00001F0DAFC25208DF800000E208DF80100DC
:101FC00000208DF8020001208DF8030000A801F028
:101FD000A7FA0121204601F09CFC06B010BD0000CC
:101FE000280000200038014068000020043801402B
:101FF0005C0500202C050020440600206C06002013
:1020000010B5012080F310883A4C0020E070207158
:102010001420A071E0710A2060710020A0701420CB
:1020200020720A2060721420A0720020E0722073D7
:1020300001F08EFD02F080F902F05CFA002080F3DE
:1020400010880120207010BD10B52A4C2078401E49
:102050000A284DD8DFE800F006181D2B304C4C4CF8
:102060004C4C3D00012080F3108823480168A26990
:1020700061F30002A261490849000160002080F379
:1020800010880220207010BD02F0C6F903202070D5
:1020900010BD002084F8010002F047FA6078401C6F
:1020A0006070C0B20428F7D30420207010BD02F085
:1020B000FFF90520207010BD0420607002F035FA91
:1020C0006078401C6070C0B20528F7D30B202070E8
:1020D00010BD02F050FCA08B20820020A08394F859
:1020E00020002075002084F820000120207010BD01
:1020F000FEE700009C0500209405002030B581B06B
:10210000044600252068402818BF002805D04FF459
:10211000B771DFF83004FEF791FF6068802805D3BF
:1021200040F26F11DFF81C04FEF788FFA068B0F5DD
:10213000005F05D34FF4B871DFF80804FEF77EFFA7
:10214000DFF80404CA21C1615321C16100954168CF
:1021500049060FD44FF0FF3141604168009A521C8C
:102160000092009AB2F5005F01D04906F5D54168AA
:10217000490613D5016821F0400101600168226819
:1021800011430160A16881608168626841EA02418F
:102190008160416821F0800141600125FF21C1611A
:1021A000284601B030BD81B000200090DFF89C03CC
:1021B000CA21816153218161016821F0A001016080
:1021C0000168009A521C0092009AB2F5805F01D01B
:1021D0008906F5D50168FF228261480900F00100F7
:1021E00001B07047F0B581B00E460025DFF85043CE
:1021F00030B3DFF85073012804D040F28321384611
:10220000FEF71CFF3078A168490640F1B98001094A
:1022100001EB810200F00F0000EB4200C0B208B1F8
:102220000D2804D340F299213846FEF707FFF078D5
:10223000002818BF402800F0B38040F29A21ACE09B
:102240003078A168490611D5401EC0B20C2805D3CC
:1022500040F28921DFF8EC02FEF7F0FEF07800286A
:1022600018BF40280BD040F28A2104E0F5701828EE
:1022700005D340F28F21DFF8CC02FEF7DFFE707845
:102280003C2805D340F29121DFF8B802FEF7D6FED4
:10229000B0783C2805D340F29221DFF8A802FEF77F
:1022A000CDFE3078014600220A2805D30A22B0FB71
:1022B000F2F2F62000FB021141EA021071780B469F
:1022C00000220A2905D30A22B1FBF2F2F62101FB12
:1022D000023343EA0211B3781F4600220A2B05D3CA
:1022E0000A22B3FBF2F2F62303FB0277C0B209061F
:1022F000090C41EA004047EA0211C9B20843F178EB
:1023000040EA0140CA216162532161620095E1689F
:1023100049060FD44FF0FF31E160E168009A521C8A
:102320000092009AB2F5005F01D04906F5D5E16848
:10233000490620D5DFF8181208402060E06820F038
:102340008000E0600095CA20606253206062E0680F
:1023500020F0A000E060E0680099491C009100991D
:10236000B1F5805F01D08006F5D5E068FF2161629C
:10237000400900F00105FF206062284601B0F0BD71
:10238000F570010901EB810200F00F0000EB420043
:10239000C0B2182804D340F29F213846FEF74EFE03
:1023A0007078010901EB810200F00F0000EB4200A0
:1023B000C0B23C2804D340F2A1213846FEF73EFECD
:1023C000B078010901EB810200F00F0000EB420040
:1023D000C0B23C2804D340F2A2213846FEF72EFEBC
:1023E00030787178090241EA0040B17886E730B56B
:1023F00081B005000C4618BF012D05D040F2F52133
:10240000DFF84001FEF71AFEDFF834010068DFF85C
:1024100040110840010C01F03F022270020A627074
:10242000A07001F04000E070D5B92078010901EBFF
:10243000810200F00F0000EB42002070607801097B
:1024400001EB810200F00F0000EB42006070A07809
:10245000010901EB810200F00F0000EB4200A070C7
:1024600001B030BD10B5040018BF012C0DD0022CF6
:1024700018BF032C09D0042C18BF062C05D04FF42C
:102480009A610FF28010FEF7D9FDDFF86801CA21CA
:10249000C1615321C1610168C908C90001600168B7
:1024A00021430160FF21C16110BD10B50446B4F5A0
:1024B000803F05D340F2EB410FF24810FEF7BEFD1E
:1024C000DFF83401CA210161532101610460FF2159
:1024D000016110BD10B582B0044600200090002CB0
:1024E00018BF012C05D04FF4A2610FF21810FEF7AF
:1024F000A5FDDFF80011CA20C8615320C861002C77
:10250000086807D040F4806008600120FF22CA619B
:1025100002B010BD20F4806008604868009A521C28
:102520000092009AB2F5005F01D04007F5D54868E7
:10253000800800F00100FF22CA6102B010BD000057
:102540000028004004260008082800400C2800400D
:102550007F7F7F0030B581B004000D4602D0274850
:10256000044205D040F293710FF29800FEF766FD29
:10257000002D18BF012D05D040F294710FF2840098
:10258000FEF75CFD1B48CA21C1615321C16104F003
:10259000040124F00402002D036808D01A430260ED
:1025A000826B11438163FF21C16101B030BD23EA19
:1025B00002020260826B22EA01018163FF21C16194
:1025C00001B030BD10B5040002D034F43C3005D069
:1025D00040F623010FF22C00FEF730FD08482103DE
:1025E000090C41F08001026802F0800262EA0101F8
:1025F000016010BD0828004014280040FB0FFFFFB9
:102600000C280040433A5C30304669726D77617245
:1026100065576F726B696E6741436861755C576F90
:10262000726B696E675C475453565F52616E6765A3
:10263000486F6F642D426C61636B436F6E74726F91
:102640006C2D46696E616C325C4C696272617269B4
:1026500065735C53544D33324C3178785F537464F6
:102660005065726970685F4472697665725C7372F6
:10267000635C73746D33326C3178785F7274632E7F
:102680006300000010B504462068002818BFB0F5AC
:10269000800F2ED0B0F5000F18BFB0F5400F28D036
:1026A000B0F1807F18BFB0F1A07F22D0B0F1C07F21
:1026B00018BFB0F1E07F1CD0B0F1007F18BFB0F1BF
:1026C000107F16D0B0F1207F18BFB0F1307F10D04E
:1026D000B0F1407F18BFB0F1507F0AD0B0F1607FF9
:1026E00018BFB0F1707F04D0B5210FF2EC20FEF7D7
:1026F000A5FC6068002818BFB0F5802F2ED0B0F57B
:10270000002F18BFB0F5402F28D0B0F5801F18BF9C
:10271000B0F5A01F22D0B0F5C01F18BFB0F5E01F64
:102720001CD0B0F5001F18BFB0F5101F16D0B0F5C3
:10273000201F18BFB0F5301F10D0B0F5401F18BFD4
:10274000B0F5501F0AD0B0F5601F18BFB0F5701F6C
:1027500004D0B6210FF28020FEF770FCA06800289C
:1027600018BF042809D008281CBF0C28102804D042
:10277000B7210FF26420FEF761FCE06800281CBF5F
:102780002028402804D0B8210FF24C20FEF756FC38
:102790002069002818BF022804D0B9210FF2382080
:1027A000FEF74CFC8648416821F07F71416041682A
:1027B000226863681A431143416081688906FCD529
:1027C000016821F07E0101600168A268E3681A4394
:1027D00023691A431143016010BD30B581B0040074
:1027E00018BF012C09D00FF2F015E2212846FEF7A0
:1027F00025FCE5212846FEF721FC7248046001B063
:1028000030BD714801688906FCD5704710B50400D9
:1028100018BF012C05D040F215110FF2BC10FEF7C5
:102820000DFC6A48046010BD10B5040018BF102CE0
:1028300011D0202C18BF302C0DD0402C18BF502C9C
:1028400009D0602C18BF702C05D04FF496710FF290
:102850008810FEF7F3FB5E48016821F0700101600B
:1028600001682143016010BD10B5040018BF802C21
:1028700017D0B4F5807F18BFB4F5C07F11D0B4F580
:10288000007F18BFB4F5207F0BD0B4F5407F18BF90
:10289000B4F5607F05D040F243110FF23C10FEF713
:1028A000CDFB4B48016821F4607101600168214350
:1028B000016010BD30B581B004000D4618BFB4F5FD
:1028C000803F0BD0B4F5003F18BFB4F5403F05D0B2
:1028D0004FF4B1710FF20010FEF7B0FB002D18BFDE
:1028E000B5F5005F17D0B5F5804F18BFB5F5C04FEF
:1028F00011D0B5F5004F18BFB5F5204F0BD0B5F589
:10290000404F18BFB5F5604F05D040F263110FF28C
:10291000C800FEF793FB2E48016821F4783101606E
:10292000016845EA04021143016001B030BD10B5F1
:10293000040018BFB4F5806F17D0B4F5006F18BF4E
:10294000B4F5406F11D0B4F5805F18BFB4F5A05F47
:102950000BD0B4F5C05F18BFB4F5E05F05D04FF4FD
:10296000BD710FF27400FEF769FB1948016821F48C
:10297000E051016001682143016010BD154801214B
:102980000160704730B581B004460025012C18BFA6
:10299000022C0DD0042C18BF082C09D0102C18BF05
:1029A000202C05D04FF406710FF22C00FEF746FBE9
:1029B00005480068204218BF0125284601B030BDF7
:1029C0000024004000800442082400401C8004428F
:1029D0000424004008810442433A5C303046697266
:1029E0006D77617265576F726B696E67414368619D
:1029F000755C576F726B696E675C475453565F52D4
:102A0000616E6765486F6F642D426C61636B436FE5
:102A10006E74726F6C2D46696E616C325C4C6962CB
:102A20007261726965735C53544D33324C317878FE
:102A30005F5374645065726970685F44726976654B
:102A4000725C7372635C73746D33326C3178785F6F
:102A50006C63642E630000003648017821B90121BF
:102A600001704170002070474FF0FF3070473148CF
:102A7000017829B9012101700221417000207047BD
:102A80004FF0FF30704710B52A4C2078C8B101468E
:102A90006288904208D2012804BF274800F0F2FB68
:102AA0002078401C207010BD0021234800F0EAFB74
:102AB0006078401E6070C1B2491E8941C943C90F88
:102AC000217010BD1D48017881F00101017070472F
:102AD00010B584B00121202000F031F918480068B9
:102AE0004FF47A61B0FBF1F0401EADF80800002011
:102AF0000190ADF80A00104C01A9204600F058FBE7
:102B00000121204600F089FC01220121204600F02D
:102B100003FC2C208DF800000B208DF80100012013
:102B20008DF802008DF8030000A800F0F9FC04B055
:102B300010BD00006400002000140040B0024042BC
:102B40000000002010B504001CBF012C052C05D08E
:102B500040F2BD110FF2D820FEF770FADFF89402B0
:102B600000210170047010BDDFF88C02006800F0D5
:102B70000C00704710B4DFF878124A6802F00C02BB
:102B80000C2A23D8DFE802F0222222220722222266
:102B90000A2222220D00DFF8642220E0DFF8602202
:102BA0001DE04A684B68C2F38342DFF85842125D69
:102BB000C3F381535B1C4C68E40354BFDFF83C4211
:102BC000DFF83C426243B2FBF3F208E00A680123FB
:102BD000520B02F00702521C03FA02F2D203026007
:102BE0004B68DFF820220468C3F303139B181B7B98
:102BF00024FA03F343604B684468C3F302239B1831
:102C00001B7B24FA03F3836049684368C1F3C22144
:102C10008918097B23FA01F1C16010BC704710B517
:102C20000446B4F5803F18BFB4F5003F14D0B4F5A6
:102C3000403F1CBFDFF8D00184420DD0DFF8CC014B
:102C400084421CBFDFF8C801844205D040F2E13164
:102C50000FF2DC10FEF7F2F9DFF8900104F44031D6
:102C6000B1F5403F06D1016821F0C04104F0C042F7
:102C700011430160416B21F440314163416B04F425
:102C800040321143416310BD10B5040018BF012C40
:102C900005D040F203410FF29810FEF7CFF9DFF8AC
:102CA0007401046010BD30B581B004460D46DFF8F4
:102CB0006801044200D12CB940F22F410FF270108C
:102CC000FEF7BCF975B1012D05D04FF486610FF206
:102CD0006010FEF7B3F9DFF8440101682143016099
:102CE00001B030BDDFF834010168A143016001B0DB
:102CF00030BD30B581B004460D46DFF824010442F2
:102D000000D12CB940F251410FF22410FEF796F990
:102D100075B1012D05D040F252410FF21410FEF7AB
:102D20008DF9DFF8000101682143016001B030BD79
:102D3000DFF8F0000168A143016001B030BD30B59B
:102D400081B004460D46DFF8E000044200D12CB902
:102D500040F27C410FF2D800FEF770F96DB1012D01
:102D600005D040F27D410FF2C800FEF767F92F4809
:102D700001682143016001B030BD2C480168A143C6
:102D8000016001B030BD30B581B004460025212C72
:102D900018BF312C1AD0292C18BF392C16D0492C29
:102DA00018BF412C12D05A2C18BF5B2C0ED05C2CB3
:102DB00018BF5D2C0AD05E2C1CBF5F2C592C05D08F
:102DC00040F2B6510FF26800FEF738F90748610982
:102DD00001290CBF0068406B012104F01F029140E3
:102DE000084218BF0125284601B030BD0038024016
:102DF0000438024035380240083802400024F4000C
:102E000000127A0048000020000003200000034068
:102E100000000360D8064742C06FFFFE1C38024026
:102E2000E2ADFFFF20380240C8B5194F24380240F8
:102E3000433A5C30304669726D77617265576F72E4
:102E40006B696E6741436861755C576F726B696E41
:102E5000675C475453565F52616E6765486F6F6495
:102E60002D426C61636B436F6E74726F6C2D46699B
:102E70006E616C325C4C69627261726965735C533D
:102E8000544D33324C3178785F53746450657269B5
:102E900070685F4472697665725C7372635C7374A8
:102EA0006D33326C3178785F7263632E630000009B
:102EB0002DE9F04381B004460D460026DFF85802A4
:102EC00084421CBFDFF85402844214D0DFF8500261
:102ED00084421CBFDFF84C0284420CD0DFF8480269
:102EE00084421CBFDFF84402844204D0C1210FF2A7
:102EF0004020FEF7A3F8286820B9C2210FF2302045
:102F0000FEF79CF82879002818BF012808D002286D
:102F100018BF032804D0C3210FF21420FEF78EF847
:102F2000E87940B1012818BF022804D0C4210FF26B
:102F30000020FEF783F8012000FA06F8286808EA66
:102F40000000404545D177000320B8406FEA0009F2
:102F5000206809EA0000206020682979B940084308
:102F600020602879012818BF022829D16879002813
:102F700018BF012808D0022818BF032804D0D82180
:102F80000FF2AC10FEF75AF8A06809EA0000A06042
:102F9000A0686979B9400843A060A879002818BFE3
:102FA000012804D0DF210FF28810FEF747F8A0882F
:102FB00020EA0800A080A088A979B1400843A08039
:102FC000E06809EA0000E060E068E979B940084398
:102FD000E060761C102EAED301B0BDE8F0834FF652
:102FE000FF7101600021017141718171C1717047F0
:102FF00030B581B004460D46474884421CBF47485F
:10300000844211D0464884421CBF464884420BD0BB
:10301000454884421CBF4548844205D040F29B117C
:103020000FF20C10FEF70AF82DB94FF4CE710FF223
:103030000010FEF703F8658301B030BD70B5064699
:103040000D461446344886421CBF3448864211D08F
:10305000334886421CBF334886420BD032488642F2
:103060001CBF3248864205D040F209210FF2C00051
:10307000FDF7E4FF002D18BF012D21D0022D18BF50
:10308000032D1DD0042D18BF052D19D0062D18BFF6
:10309000072D15D0082D18BF092D11D00A2D18BFE6
:1030A0000B2D0DD00C2D18BF0D2D09D00E2D18BFD6
:1030B0000F2D05D040F20A210FF27400FDF7BEFF7C
:1030C000002C18BF012C16D0022C18BF032C12D0D4
:1030D000042C18BF052C0ED0072C18BF0A2C0AD0C0
:1030E0000B2C1CBF0E2C0F2C05D040F20B210FF225
:1030F0004000FDF7A3FFE81006EB800005F0070194
:103100008900026A0F238B409A430262026A04FA22
:1031100001F11143016270BD000002400004024051
:1031200000080240000C024000100240001402405F
:10313000433A5C30304669726D77617265576F72E1
:103140006B696E6741436861755C576F726B696E3E
:10315000675C475453565F52616E6765486F6F6492
:103160002D426C61636B436F6E74726F6C2D466998
:103170006E616C325C4C69627261726965735C533A
:10318000544D33324C3178785F53746450657269B2
:1031900070685F4472697665725C7372635C7374A5
:1031A0006D33326C3178785F6770696F2E63000021
:1031B00030B581B004460D46B4F1804F1CBFDFF836
:1031C000380184421CD0DFF8340184421CBFDFF890
:1031D0003001844214D0DFF82C0184421CBFDFF898
:1031E000280184420CD0DFF8240184421CBFDFF8A0
:1031F0002001844204D0FA21DFF81801FDF71EFFF8
:103200006888002818BF102809D020281CBF402833
:10321000602804D0FB21DFF8FC00FDF70FFFE888F1
:1032200000281CBFB0F5807FB0F5007F04D0FC21E2
:10323000DFF8E000FDF702FF2088B4F1804F1FBFE8
:10324000DFF8B4108C42DFF8B4108C4204D14FF692
:103250008F71084069880843DFF8A4108C421CBFB6
:10326000DFF8A0108C4204D04FF6FF410840E988F7
:1032700008432080A888A085288820850120A08276
:1032800001B030BD30B581B004460D46B4F1804F79
:103290001CBF1948844218D0184884421CBF1848E3
:1032A000844212D0174884421CBF174884420CD075
:1032B000164884421CBFDFF85800844205D040F213
:1032C0001A21DFF85000FDF7B9FE6DB1012D05D0D0
:1032D00040F21B21DFF83C00FDF7B0FE208840F0F3
:1032E0000100208001B030BD20884FF6FE710840FB
:1032F000208001B030BD0000000400400008004004
:10330000001000400014004000080140000C014083
:1033100000100140A034000870B504460D46164662
:10332000B4F1804F1CBF564884421AD0554884429D
:103330001CBFDFF86001844213D0DFF85C018442D7
:103340001CBF514884420CD0504884421CBFDFF857
:103350004001844205D040F26A71DFF84001FDF778
:103360006DFE4FF6A070054200D12DB940F26B7191
:10337000DFF82801FDF762FE5EB1012E05D040F2B4
:103380006C71DFF81801FDF759FEA0892843A08170
:1033900070BDA089A843A08170BD70B506460C46DB
:1033A0000025B6F1804F1CBF354886421AD03548FB
:1033B00086421CBFDFF8DC00864213D0DFF8D8005D
:1033C00086421CBF304886420CD0304886421CBF23
:1033D000DFF8BC00864205D04FF4FF61DFF8BC0087
:1033E000FDF72CFE012C18BF022C0DD0042C18BFA9
:1033F000082C09D0102C18BF402C05D040F2F971D0
:10340000DFF89800FDF71AFE308AB189214020428A
:103410001CBF00290125284670BD30B581B0044687
:103420000D46B4F1804F1CBF1548844219D0154891
:1034300084421CBFDFF85C00844212D0DFF85800E1
:1034400084421CBF104884420BD0104884421CBFE9
:103450000F48844205D040F61F01DFF84000FDF719
:10346000EDFD4FF6A070054200D12DB94FF4026179
:10347000DFF82800FDF7E2FDE843208201B030BD0F
:10348000000400400008004000080140000C01401A
:10349000001001400010004000140040A03400085B
:1034A000433A5C30304669726D77617265576F726E
:1034B0006B696E6741436861755C576F726B696ECB
:1034C000675C475453565F52616E6765486F6F641F
:1034D0002D426C61636B436F6E74726F6C2D466925
:1034E0006E616C325C4C69627261726965735C53C7
:1034F000544D33324C3178785F537464506572693F
:1035000070685F4472697665725C7372635C737431
:103510006D33326C3178785F74696D2E6300000012
:1035200070B50446E078002818BF012804D08C212B
:103530000FF28800FDF782FD6078102804D38D21FA
:103540000FF27800FDF77AFDA078102804D38E21C1
:103550000FF26800FDF772FD227811460120E37832
:10356000E3B1124A126802F4E062C2F5E062120AA4
:103570006378C2F10405AB40A5780F2626FA02F263
:103580002A401A4312010A4BCA5421784A11094BA6
:1035900001F01F01884043F8220070BD4911064B1D
:1035A00002F01F02904043F8210070BD0CED00E0D6
:1035B00000E400E000E100E080E100E0433A5C303C
:1035C000304669726D77617265576F726B696E67AD
:1035D00041436861755C576F726B696E675C4754F5
:1035E00053565F52616E6765486F6F642D426C6120
:1035F000636B436F6E74726F6C2D46696E616C32D3
:103600005C4C69627261726965735C53544D33320C
:103610004C3178785F5374645065726970685F44A8
:1036200072697665725C7372635C6D6973632E6335
:103630000000000030B581B004462079002818BF92
:10364000042804D081210FF2D400FDF7F7FC607943
:1036500008281CBF0C28102804D082210FF2BC00BF
:10366000FDF7ECFC2068C10DC90500D120B983210C
:103670000FF2A800FDF7E2FCA07980B3012806D084
:1036800084210FF29800FDF7D9FCA07938B32148C6
:10369000016822689143016041682268914341605A
:1036A00022798218136825682B4313608268236887
:1036B0009A438260C26823689A43C2606279236831
:1036C000102A08D1816819438160C16822681143BA
:1036D000C16001B030BD82181068184307E020793E
:1036E00000F1804202F58232106821688843106040
:1036F00001B030BD10B50446E00DC00500D12CB9B5
:103700004FF492710FF21400FDF798FC0248046028
:1037100010BD00000004014014040140433A5C3035
:10372000304669726D77617265576F726B696E674B
:1037300041436861755C576F726B696E675C475493
:1037400053565F52616E6765486F6F642D426C61BE
:10375000636B436F6E74726F6C2D46696E616C3271
:103760005C4C69627261726965735C53544D3332AB
:103770004C3178785F5374645065726970685F4447
:1037800072697665725C7372635C73746D33326CEC
:103790003178785F657874692E630000002201F04B
:1037A000B5B950F8041B61B150F8042BD30744BFDE
:1037B000A9F101039A18002342F8043B091FFAD12A
:1037C000EFE77047F0B585B004460D460FF20036BE
:1037D000DFF8EC72BC421FBFDFF8E8028442DFF87A
:1037E000E802844203D0D8213046FDF727FC286840
:1037F00018B1DFF8D812884203D3D9213046FDF73B
:103800001DFCA888002818BFB0F5805F03D0DA211E
:103810003046FDF713FCE888002818BFB0F5805F3C
:1038200009D0B0F5005F18BFB0F5405F03D0DB21D1
:103830003046FDF703FC288900281CBFB0F5806FD7
:10384000B0F5C06F03D0DC213046FDF7F7FB688987
:103850004FF6F371084200D118B9DD213046FDF76B
:10386000EDFBA889002818BFB0F5807F09D0B0F51E
:10387000007F18BFB0F5407F03D0DE213046FDF752
:10388000DDFB208A4CF6FF710840E988084320825E
:10389000A0894EF6F3110840A988084329890843F6
:1038A00069890843A081A08A4FF6FF410840A98991
:1038B0000843A08200A8FFF75DF9BC420CBF039843
:1038C0000298296819225043A28912044CBF49006A
:1038D0008900B0FBF1F16422B1FBF2F000010309B1
:1038E00002FB1311A3891B0409D5C9003231B1FBB6
:1038F000F2F101F007010843208105B0F0BD090194
:103900003231B1FBF2F101F00F010843208105B023
:10391000F0BD30B581B004460D46DFF8A401844205
:103920001FBFDFF8A0018442DFF89C01844205D06C
:1039300040F27F110FF29810FDF780FB6DB1012D61
:1039400005D04FF4C0710FF28810FDF777FBA08906
:1039500040F40050A08101B030BDA0894DF6FF7148
:103960000840A08101B030BD70B505460E46144632
:10397000534885421FBF534885425348854205D06E
:1039800040F2B9410FF24810FDF758FB282E1CBF3A
:1039900040F2277086421BD040F2266086421CBF50
:1039A00040F22550864213D040F2244086421CBF8C
:1039B00040F6460086420BD040F66A10864218BF99
:1039C000602E05D040F2BA410FF20410FDF736FB2D
:1039D000002C18BF012C05D040F2BB410FF2F000C3
:1039E000FDF72CFB3006400F012106F01F0291402D
:1039F000012808BF05F10C0005D002280CBF05F115
:103A0000100005F11400002C026814BF114322EAD3
:103A10000101016070BD70B505460E4600242848BE
:103A200085421FBF274885422748854205D040F27E
:103A30003C510FF29C00FDF701FB282E1CBF40F209
:103A40002770864222D040F2266086421CBF40F298
:103A5000255086421AD040F2244086421CBF40F6D0
:103A60004600864212D040F66A10864218BFB6F56C
:103A7000587F0BD0B6F5187F18BFB6F5B07F05D0CC
:103A800040F23D510FF24800FDF7D8FA3006400FE2
:103A9000012106F01F0201FA02F2012808BFA889DD
:103AA00003D002280CBF288AA88A1040320A91400D
:103AB0002A88114000281CBF00290124204670BD1F
:103AC00000380140004400400048004001093D002A
:103AD000433A5C30304669726D77617265576F7238
:103AE0006B696E6741436861755C576F726B696E95
:103AF000675C475453565F52616E6765486F6F64E9
:103B00002D426C61636B436F6E74726F6C2D4669EE
:103B10006E616C325C4C69627261726965735C5390
:103B2000544D33324C3178785F5374645065726908
:103B300070685F4472697665725C7372635C7374FB
:103B40006D33326C3178785F75736172742E6300F7
:103B5000DFF8B807016841F001010160DFF8B01734
:103B60008A6842F0C0028A60026842F00202026083
:103B70008A6842F440328A60026842F004020260BD
:103B8000CA6842F4F872CA60826842F000428260F9
:103B90000868400040080860DFF878070188018065
:103BA00081688160B0F80014A0F80014D0F80814FF
:103BB000C0F80814B0F80018A0F80018D0F80818D9
:103BC000C0F808180188018081688160B0F800148D
:103BD000A0F80014D0F80814C0F80814B0F80018C1
:103BE000A0F80018D0F80818C0F80818FFE730B59A
:103BF00081B0DFF82447DFF8185728682040286094
:103C00006868800880006860012080F31088DFF811
:103C10000C07818A4FF67F7211408182016821F47E
:103C2000404141F480410160B0F814144FF6FD7238
:103C30001140A0F81414D0F8001421F00C0141F048
:103C40000401C0F80014B0F814184FF65F72114068
:103C5000A0F81418D0F8001821F44C4141F4884120
:103C6000C0F80018818A4FF6BF7211408182016846
:103C700021F4405141F480510160B0F814144FF622
:103C8000FE721140A0F81414D0F8001489088900BD
:103C900041F00101C0F80014B0F814184FF6AF72EB
:103CA0001140A0F81418D0F8001821F44C5141F438
:103CB0008851C0F80018818A818201680160B0F8DB
:103CC0001414A0F81414D0F80014C0F80014B0F8BC
:103CD00014184FF6FF621140A0F81418D0F800181D
:103CE00021F4403141F48031C0F80018002080F305
:103CF0001088642000F01AFB28682040286068685B
:103D000080088000686001B030BD2DE9F04F81B0BF
:103D10000024DFF80C562C606C60AC60EC602C6109
:103D20006C61DFF8F485DFF8E875386808EA0000B0
:103D300038607868800880007860012080F31088FF
:103D4000DFF8D865B08A4FF67F710840B0823068DE
:103D500020F4404040F480403060B6F814044FF640
:103D6000FD710840A6F81404D6F8000420F00C00F9
:103D700040F00400C6F80004B6F814084FF65F716E
:103D80000840A6F81408D6F8000820F44C4040F487
:103D90008840C6F80008B08A4FF6BF710840B0826C
:103DA000306820F4405040F480503060B6F814047D
:103DB0004FF6FE710840A6F81404D6F800048008F7
:103DC000800040F00100C6F80004B6F814084FF671
:103DD000AF710840A6F81408D6F8000820F44C503B
:103DE00040F48850C6F8000884F31088322000F0B0
:103DF0009DFA012080F31088306820F44050306034
:103E0000D6F8000480088000C6F80004D6F8000840
:103E100020F44C50C6F8000884F310884FF6FC7963
:103E200044F2401A48F2802B38684BEA00003860B0
:103E3000786840F002007860012080F31088B08A32
:103E400040F04000B082306820F4405040F4805090
:103E50003060B6F8140440F00100A6F81404D6F857
:103E600000048008800040F00100C6F80004B6F8A5
:103E7000140840F05000A6F81408D6F8000820F402
:103E80004C5040F48850C6F80008002080F3108899
:103E900000F056FE287DC00707D4308A800704D57D
:103EA0002C80686940F001006861287D400608D4D4
:103EB000B6F81004800404D5AC81686940F0400075
:103EC0006861287D000608D4B6F81008800704D57C
:103ED000EC81686940F0800068616869800508D4F9
:103EE000B6F81008000604D56C82686940F40070CA
:103EF0006861287D000707D4308A800504D5EC80EE
:103F0000686940F008006861287DC00607D4308ADF
:103F1000400404D52C81686940F010006861287D58
:103F2000800707D4308A000604D56C80686940F0A9
:103F300002006861287D400708D4B6F810048007A5
:103F400004D5AC80686940F004006861287D800673
:103F500008D4B6F81004800604D56C81686940F076
:103F6000200068616869C00508D4B6F810088006AA
:103F700004D52C82686940F480706861641C01205B
:103F800080F31088306820F440503060D6F8000488
:103F900080088000C6F80004D6F8000820F44C50D1
:103FA000C6F80008002080F3108838684AEA00004C
:103FB0003860786840F00100786000F0C3FD0120AF
:103FC00080F31088306820F440403060D6F8000458
:103FD00020F00C00C6F80004D6F8000820F44C408D
:103FE000C6F80008002080F31088386808EA00004E
:103FF0003860786809EA0000786041F2A940A4B20C
:10400000844203D300BF01B0BDE8F08F288B6969FB
:10401000014081427FF408AF01B0BDE8F08F2DE987
:10402000F04F81B00024BF4D2C606C60AC60EC6040
:104030002C616C61DFF8F092B54F386809EA000036
:1040400038604FF6F978786808EA00007860012057
:1040500080F31088B14EB08A4FF67F710840B0826D
:10406000306820F4404040F480403060B6F81404DA
:104070004FF6FD710840A6F81404D6F8000420F0AD
:104080000C0040F00400C6F80004B6F814084FF61F
:104090005F710840A6F81408D6F8000820F44C40D8
:1040A00040F48840C6F80008B08AB08230683060BA
:1040B000B6F81404A6F81404D6F80004C6F80004F0
:1040C000B6F814084FF6FF610840A6F81408D6F8B1
:1040D000000820F4403040F48030C6F8000884F333
:1040E0001088322000F022F9012080F31088306817
:1040F0003060D6F80004C6F80004D6F8000820F4B2
:104100004030C6F8000884F31088012080F310883E
:10411000306820F440403060D6F8000420F00C00F5
:10412000C6F80004D6F8000820F44C40C6F8000891
:1041300084F3108841F2A94A48F2802B38684BEA90
:1041400000003860786840F002007860012080F359
:104150001088B08AB08230683060B6F81404A6F8CF
:104160001404D6F80004C6F80004B6F8140840F4A5
:104170008070A6F81408D6F8000820F4403040F407
:104180008030C6F80008002080F3108800F0D8FCCA
:10419000287DC00707D4308A800704D52C80686941
:1041A00040F001006861287D400608D4B6F810048C
:1041B000800404D5AC81686940F040006861287DC6
:1041C000000608D4B6F81008800704D5EC816869A9
:1041D00040F0800068616869800508D4B6F810086E
:1041E000000604D56C82686940F400706861287D1F
:1041F000000707D4308A800504D5EC80686940F058
:1042000008006861287DC00607D4308A400404D5C0
:104210002C81686940F010006861287D800707D410
:10422000308A000604D56C80686940F0020068613D
:10423000287D400708D4B6F81004800704D5AC8068
:10424000686940F004006861287D800608D4B6F8EB
:104250001004800604D56C81686940F02000686114
:104260006869C00508D4B6F81008800604D52C8209
:10427000686940F480706861012080F310883068BC
:104280003060D6F80004C6F80004D6F8000820F420
:104290004030C6F80008002080F31088641C38689D
:1042A0003860786840F00400786000F04BFC012032
:1042B00080F31088306820F440403060D6F8000465
:1042C00020F00C00C6F80004D6F8000820F44C409A
:1042D000C6F80008002080F31088386809EA00005A
:1042E0003860786808EA00007860544503D300BF5E
:1042F00001B0BDE8F08F288B6969014081427FF4ED
:104300001DAF01B0BDE8F08F000000001C38024076
:10431000087C0040040002403F3CFFFF00000240D8
:10432000C0050020DC0500207F7DFFFF00E0401E6F
:1043300080B20028FBD1704710B5354C0020A06139
:1043400060612061E06184F828002046FEF712FCDD
:1043500060684FF4FA61B0FBF1F0B0F1807F0CD2ED
:104360002C490002000A401E4860F02081F8130D1D
:10437000002088600720086010BDFEE724484169DE
:1043800082690369142B10D3143B0361491CC36970
:104390005B1CC3610A2922BF0A39521C0A2A04D3B2
:1043A0000A3A836A43F00103836282614161704784
:1043B00010B5174C2069401C2061E06A10B1E06A1A
:1043C000401EE062FFF7DAFFA06A810704D520F003
:1043D0000600A062C8202062A06A010704D520F070
:1043E0001800A062C8206062206A30B1401E2062BE
:1043F00003D1A06A40F00400A062606A30B1401EA0
:10440000606203D1A06A40F01000A06210BD0000FD
:104410006C05002010E000E070B5DFF82C430020B0
:104420002083DFF82853DFF828633078882108429A
:1044300003D1DFF8200300882083307D084205D1B6
:10444000208BDFF8101349880843208396F8280052
:104450008821084205D1208BDFF8F81289880843AB
:10446000208396F83C008821084205D1208BDFF894
:10447000E412C9880843208304202870208BB0B13F
:10448000FFF743FCDFF8D002017834F81110718196
:10449000417834F81110F183817834F81110718665
:1044A000C07834F81000A6F846000420287070BDCB
:1044B00070B5DFF8A84200202083DFF89052DFF8C3
:1044C000906296F850008821084203D1DFF88402F8
:1044D0000089208305202870208B50B1FFF79FFDB5
:1044E000DFF87C02007834F81000A6F85A000520A6
:1044F000287070BD70B5954C002020706FF01105CC
:10450000DFF8606200F03AF93068802101703068AD
:104510006321017430684174306885742078401CD0
:104520002070C0B20528EDD370BD10B500F026F99B
:1045300000F02EF98B4C20680178012973D00229F4
:104540000CD0042940D0082912D011295AD014299E
:1045500023D0242942D0802972D076E04089323895
:1045600041F2774180B2884267D200F06FF820684C
:104570000079800758BF00F094F920687A490A88CA
:1045800083881A430A8079490A7803781A430A70A3
:10459000416821F00801416010BD7549B1F9001072
:1045A00090F9100081420CDB00F08EF92068817BCD
:1045B000491E81732068807B0028DED100F01FF93E
:1045C000DBE700F003F9D8E74089323841F2774160
:1045D00080B2884231D200F072F8C8E790F9111029
:1045E000634AB2F90020914209DB817B491E817345
:1045F0002068807B0028C0D100F0D4F8BDE700F02F
:1046000017F9BAE790F91210594AB2F9002091420D
:10461000D7DB817B491E81732068807B0028ACD169
:1046200000F014F9A9E74089323841F2774180B2AD
:10463000884202D200F075F899E700F01FF99CE774
:10464000007900F003000328E9E7FEE730B581B008
:10465000474DB5F90000434C216891F91220824280
:1046600004DB01B0BDE8304000F0E7B891F910106C
:10467000884222DB00F0BAF83E480078E8B92068AA
:10468000817B491C8173B5F90000216891F91010F4
:1046900088420DDB00F018F92068817B491E817388
:1046A0002068807B48B901B0BDE8304000F0A7B871
:1046B00001B0BDE8304000F089B801B030BD30B580
:1046C00081B02B4C274D286890F91100B4F90010E7
:1046D00088421FDB00F0A3F827480078F8B9286863
:1046E000817B491C8173286890F91110B4F900206E
:1046F00091420ADB817B491E81732868807B70B9F7
:1047000001B0BDE8304000F04DB801B0BDE8304028
:1047100000F08EB801B0BDE8304000F019B901B02A
:1047200030BD104801688A894B899A188A810A7AB3
:10473000521E0A720068017A21B98189C9088181F3
:1047400000F030B870470000C00500209D05002033
:10475000C8040020344F00082C4F0008DC0500205E
:10476000304F000870060020B8050020BC0500206E
:104770007E0600209F050020A0050020D14800787B
:1047800000EB8001D04800EB8100D0490860704701
:10479000CE480068B0F90C10B0F90A00081ACC49EC
:1047A00008807047C94801684A6842F008024A60B8
:1047B00002220A700068416821F00401416021F082
:1047C0008001416021F0200141607047BF480168CD
:1047D00002220A700068416821F00401416021F062
:1047E0008001416021F0200141607047B7480168B5
:1047F00014220A700068B749097881737047B3487A
:10480000016804220A700068416841F004014160B7
:1048100041F008014160B049097801727047AB4826
:10482000016824220A700068AC49097881737047D6
:10483000A6480068042101707047A448016811224D
:104840000A700068A6490978817370479F4801681B
:1048500001220A7001684A6822F004024A6042F0AC
:1048600008024A6022F080024A6022F020024A6078
:1048700008220A720068002181817047934801680C
:1048800008220A700068416821F00401416041F08B
:104890000801416021F08001416041F02001416048
:1048A00070478A48016880220A700068416821F0D8
:1048B0000401416041F00801416021F08001416044
:1048C00021F02001416070478048006841680A0675
:1048D00000D5704770B4427A7A4B1B787A4C6BB132
:1048E000657A1646354207D025792D0604D5817B99
:1048F000491C817370BC7047012B08D0657F164638
:10490000354202D0257E2D06F1D4022B09D094F831
:104910003150354203D094F82C502D06E7D4032BA8
:1049200009D094F84550354203D094F840502D06F4
:10493000DDD4042B07D094F85930134203D094F8F7
:1049400054201206D3D441F08001416070BC7047FE
:1049500064480078C0070DD55F48007850B15B48C7
:1049600001680A7A521E0A720068007A002808BF9D
:10497000FFF76CBF70472DE9F04F012080F31088DE
:1049800059485A490A68026000220A6082F3108876
:104990004FF0FF314E4A4D4BDFF82C81494DDFF887
:1049A0005091DFF850A10468002C00F08880641E4C
:1049B00004609AF80040002C1CBF641E8AF8004076
:1049C0004D4C2478641E5FFA84FCBCF1000F08D1C2
:1049D0004FF00A0C99F80040002C1CBF641E89F8A7
:1049E0000040454C84F800C0444C94F800C04FF09F
:1049F000010E00242C7046461E603778142F18BF15
:104A0000042F18BF242F04D13D4C247889F800408E
:104A10001DE0022F14D1B6F90CB0B6F90A70ABEB59
:104A2000070717803FB2002F06D003D5012C03DA09
:104A30000C4605E0002C02D54FF0000E00E00124EA
:104A40002F787F1C2F701436FFB2052FD4D39AF81D
:104A5000004099F800603443A5D12A4C24788AF8A4
:104A60000040BEF1000F1CBF274C94F800C08CF032
:104A7000FF04641C5FFA84FEBCF1000F93D0002495
:104A80002C702C7804EB840608EB86041C602678D6
:104A9000022E0DD1A689E77B07EB062667893F0228
:104AA00007FB0CF706FB0E76370CA781360AE67378
:104AB0002C78641C2C70E4B2052CE2D373E70160FF
:104AC000BDE8F08F9D050020C8040020700600207E
:104AD0007E0600209F0500209E050020A0050020E6
:104AE000A1050020B40500207406002088050020E0
:104AF000A7050020A6050020A8050020A505002088
:104B0000A3050020A2050020A405002000B500BFD9
:104B1000130096469446103928BFA0E80C50FAD8E6
:104B20005FEA417C28BF0CC048BF40F8042BC9078E
:104B300028BF20F8022B48BF00F8012B00BD000061
:104B400000BF704700BF70477047FEE7FEE7FEE713
:104B5000FEE7FEE7FEE7FEE730B581B0FFF728FC91
:104B6000934C2079401CC0B2192804D10020216840
:104B700041F08001216020718E4D2888401C2880E2
:104B800080B20A2190FBF1F101EB8102B0EB42010E
:104B90003AD1216841F001012160322290FBF2F309
:104BA00002FB130080BB41F002002060FDF76BFFA9
:104BB000FDF795F82888642190FBF1F201FB1201C2
:104BC00011BB216841F004012160C82290FBF2F37F
:104BD00002FB130212B941F0100121604FF49671EB
:104BE00090FBF1F201FB120119B9216841F040017B
:104BF00021604FF4FA7190FBF1F201FB120018B939
:104C0000206840F02000206001B030BD10B56A4C33
:104C100001212046FEF7C1FB88B101212046FEF7A5
:104C2000FCFB664801680978C288521CC28090F873
:104C3000D030582B04D30322027101B9C18010BDBA
:104C40000479032CFBD8DFE804F0041C2B02F4E702
:104C5000F5E771B992B2B2F5FA7FEFD380F8D010D0
:104C60000281012180F8D0100021C1800121017151
:104C700010BD4FF6FE7192B28A42E0D14FF6FD713F
:104C8000DCE70129DBD100EB43010A8190F8D01069
:104C9000491C80F8D0100021C1800221017110BD93
:104CA00031B900EB43010A8190F8D010491CD9E7D3
:104CB00040F2F51192B28A42C1D30321017110BDB5
:104CC00000B581B0FDF7FEFE01213D4801B05DF861
:104CD00004EBFEF7A2BB0120FEF70CBD00B581B0CE
:104CE0003348016841F008020260364B1978491CCC
:104CF0001970C9B208292FD1002119705988491C8F
:104D00005980C37A052B07D1838A002B07BF42F451
:104D1000003202605A1E8282026842F4807202608F
:104D2000CB0744BF42F40072026089B2032291FBB8
:104D3000F2F202EB42028A1A03D0026842F4806265
:104D40000260052291FBF2F202EB8202891A03D083
:104D5000016841F400610160FCF70BFEFCF7C1FB48
:104D60000120FCF783F94FF48040FDF72BFC4FF452
:104D70008010FEF7BFFC002001B05DF804EBFCF7EB
:104D800075B910B5104C40F225512046FEF743FE90
:104D9000012808BFFCF73EFF40F227712046FEF7CE
:104DA0003AFE012804BFBDE81040FCF797BE10BDD5
:104DB0002C0500207C06002000100040C8030020C5
:104DC00000140040780600200038014082B03248CC
:104DD000016841F4807101608168304A114081604E
:104DE00001682F4A11400160016821F480210160AF
:104DF000816821F47D0181600021C16001910091F1
:104E0000016841F001010160016801F002010091B7
:104E10000199491C0191009919B90199B1F5A06F47
:104E2000F2D10168490801F00101009100990129BE
:104E30002FD1D0F8001441F00401C0F80014D0F8CC
:104E4000001441F00201C0F80014D0F8001441F041
:104E50000101C0F80014416A41F0805141621149DA
:104E60004FF400620A604A68D206FCD4816881600F
:104E700081688160816881608168890889008160BA
:104E8000816841F001018160816801F00C01042911
:104E9000FAD102B070470000003802400CC0FF8811
:104EA000FEFFFEEE0070004010B50749794418314E
:104EB000064C7C44163404E0081D0A6851188847E3
:104EC0000146A142F8D110BD0800000028000000F2
:104ED000D3E8FFFF18060000680000200000000073
:104EE0005FC1FFFF680000004C01000000000020CF
:104EF0000000000000F009F8002801D0FFF7D4FFFF
:104F00000020FBF7F7F800F002F80120704700F0EE
:104F100001B800000746384600F002F8FBE7000041
:104F200001491820ABBEFBE7260002000102090878
:104F3000090000000200040000020001000200005D
:104F40000148804701480047CD4D0008514F0008F7
:104F5000C046C046C046C046FFF7CCFFFFF7F4BDD1
:104F6000FFF7F3BDFFF7F2BDFFF7F1BDFFF7F0BDAF
:104F7000FFF7EFBDFFF7EEBDFFF7EDBDFFF7ECBDAF
:104F8000FFF7FEBFFFF7FEBFFFF7FEBFFFF7A6BEAE
:104F9000FFF7FEBFFFF7FEBFFFF79DBEFFF7FEBFA7
:104FA000FFF7FEBFFFF7FEBFFFF7FEBFFFF7FEBF35
:104FB000FFF7FEBFFFF7FEBFFFF7FEBFFFF7FEBF25
:104FC000FFF7FEBFFFF7FEBFFFF7FEBFFFF7FEBF15
:104FD000FFF7FEBFFFF7FEBFFFF7FEBFFFF7FEBF05
:104FE000FFF7FEBFFFF7FEBFFFF7FEBFFFF7FEBFF5
:104FF000FFF7FEBFFFF7FEBFFFF7FEBFFFF7FEBFE5
:10500000FFF7FEBFFFF7FEBFFFF7FEBFFFF7FEBFD4
:10501000FFF7FEBFFFF7B5BEFFF7FEBFFFF7FEBF0E
:10502000FFF7FEBFFFF7FEBFFFF7FEBFFFF7EEBDC6
:10503000FFF746BE0024F400030406080C101820F5
:105040003000000000000000010204000000000029
:105050000000000001020304060708090000000028
:105060000000000000000000000000000000000040
:10507000000000000000000000010000030406081A
:105080000C10182030000000000000000102030492
:0C509000010203040607080900000500E7
:0400000508004F514F
:00000001FF
