:020000040800F2
:1000000028040020AD1100080511000807110008A0
:10001000091100080B1100080D1100080000000074
:100020000000000000000000000000000F110008A8
:10003000111100080000000013110008151100083C
:10004000ED110008F1110008F51100081F1100085A
:10005000FD1100080112000819110008091200081A
:100060000D120008111200081512000819120008DC
:100070001D1200082112000825120008291200088C
:100080002D1200083112000835120008391200083C
:100090003D120008411200084512000849120008EC
:1000A0004D1200085112000855120008591200089C
:1000B0005D1200086112000865120008691200084C
:1000C0006D120008711200087512000879120008FC
:1000D0007D120008811200088512000889120008AC
:1000E0008D1200089112000895120008991200085C
:1000F0009D12000838B5044620680FF21835002814
:1001000018BFB0F5800F2CD0B0F5000F18BFB0F5B8
:10011000400F26D0B0F1807F18BFB0F1A07F20D073
:10012000B0F1C07F18BFB0F1E07F1AD0B0F1007F0E
:1001300018BFB0F1107F14D0B0F1207F18BFB0F11C
:10014000307F0ED0B0F1407F18BFB0F1507F08D0A3
:10015000B0F1607F18BFB0F1707F02D0B52100F020
:100160007CF86068002818BFB0F5802F2CD0B0F55F
:10017000002F18BFB0F5402F26D0B0F5801F18BF54
:10018000B0F5A01F20D0B0F5C01F18BFB0F5E01F1C
:100190001AD0B0F5001F18BFB0F5101F14D0B0F57D
:1001A000201F18BFB0F5301F0ED0B0F5401F18BF8C
:1001B000B0F5501F08D0B0F5601F18BFB0F5701F24
:1001C00002D0B62100F049F8A068002818BF042822
:1001D00007D008281CBF0C28102802D0B72100F037
:1001E0003CF8E06800281CBF2028402802D0B82135
:1001F00000F033F82069002818BF022802D0B92186
:1002000000F02BF87D48416821F07F714160416822
:10021000226863681A431143416081688906FCD5EE
:10022000016821F07E0101600168A268E3681A4359
:1002300023691A431143016031BD38B5040018BF6A
:10024000012C07D00FF2CC15E22100F006F8E521D1
:1002500000F003F86A48046031BD284600F0A4B9F4
:10026000684800688006FBD5704710B5040018BFC9
:10027000012C03D040F2151100F09BF86248046095
:1002800010BD10B5040018BF102C0FD0202C18BFC3
:10029000302C0BD0402C18BF502C07D0602C18BF2E
:1002A000702C03D04FF4967100F083F85748016822
:1002B00021F070011EE010B5040018BF802C15D08D
:1002C000B4F5807F18BFB4F5C07F0FD0B4F5007FC0
:1002D00018BFB4F5207F09D0B4F5407F18BFB4F53E
:1002E000607F03D040F2431100F063F84748016893
:1002F00021F46071016001682143016010BD70B597
:1003000004000D460FF20C1618BFB4F5803F09D05B
:10031000B4F5003F18BFB4F5403F03D04FF4B171BE
:1003200000F04FF8002D18BFB5F5005F15D0B5F5FA
:10033000804F18BFB5F5C04F0FD0B5F5004F18BFAF
:10034000B5F5204F09D0B5F5404F18BFB5F5604F52
:1003500003D040F2631100F034F82C48016821F416
:1003600078310160016845EA04021143016070BD03
:1003700010B5040018BFB4F5806F15D0B4F5006F48
:1003800018BFB4F5406F0FD0B4F5805F18BFB4F557
:10039000A05F09D0B4F5C05F18BFB4F5E05F03D02B
:1003A0004FF4BD7100F005F81848016821F4E051E0
:1003B000A0E70FF2600000F0F7B8154801210160D6
:1003C0007047304600F0F0B838B504460025012CDF
:1003D00018BF022C0BD0042C18BF082C07D0102CEF
:1003E00018BF202C03D04FF40671FFF7E2FF054839
:1003F0000068204218BF0125284632BD0024004075
:1004000000800442082400401C8004420424004070
:1004100008810442433A5C30304669726D776172FC
:1004200065576F726B696E6741436861755C576FA2
:10043000726B696E675C53544D33324C5F44697321
:10044000636F766572795F4669726D776172655F19
:100450005061636B5F56312E302E325C4C69627294
:1004600061726965735C53544D33324C3178785FF7
:100470005374645065726970685F4472697665721E
:100480005C7372635C73746D33326C3178785F6C5B
:1004900063642E6300000000022000F0BDF800F04D
:1004A00031F84FF4006000F0A0F8102000F0B4F82C
:1004B0000028FAD100F047F900F010F934484178EB
:1004C00041F008014170027802F0F702027041F039
:1004D0000201417002F0FD0101702E48802101806F
:1004E000402141802C4C4FF6FF70206000202B4AA9
:1004F00054F8201042F82010401C0828F8DBFFF7C1
:100500005CFFF3E780B5012000F0FAF9212000F04C
:10051000D6FA0028FAD0012000F00FFA4FF440403C
:1005200000F0D0F901213F2000F070FA01211C48B1
:1005300000F0A6FA012140F2012000F085FA012026
:1005400000F044F8012000F054FA002000F051FAC5
:10055000012000F0E2F9492000F0B1FA0028FAD0B9
:100560004FF4803000F005FA012000F035FA002049
:1005700000F09CF9312000F0A2FA00B1FEE701BDC5
:100580000848016811B10168491E01607047000008
:100590002400002018040240000000201424004021
:1005A0000002009020000020FEE750F8041B61B11B
:1005B00050F8042BD30744BFA9F101039A18002374
:1005C00042F8043B091FFAD1EFE7704710B5040069
:1005D00018BF012C02D0862100F003F81B480460EC
:1005E00010BD0FF27400FFF7DFBF10B50446B4F57D
:1005F000006F1CBFB4F5805FB4F5C05F03D04FF44B
:10060000CA71FFF7EEFF1248016821F4C05121437F
:1006100021F00C01016010BD38B504460025012C05
:1006200018BF022C0BD0042C18BF082C07D0102C9C
:1006300018BF202C03D040F20F31FFF7D2FF05483E
:100640000068204218BF0125284632BD20000E4216
:100650000070004004700040433A5C3030466972DC
:100660006D77617265576F726B696E674143686140
:10067000755C576F726B696E675C53544D33324CC7
:100680005F446973636F766572795F4669726D77EF
:100690006172655F5061636B5F56312E302E325C44
:1006A0004C69627261726965735C53544D33324CAC
:1006B0003178785F5374645065726970685F447212
:1006C000697665725C7372635C73746D33326C311E
:1006D00078785F7077722E630000000000B585B0F7
:1006E000002000904FF4701001900C2002904020E8
:1006F00003900020049000A8FFF7FCFC0120FFF706
:10070000B4FD4FF4E050FFF733FE0020FFF7D3FDB8
:100710006020FFF7B6FDFFF7A3FD0120FFF78DFD79
:100720000120FFF751FE0028FAD01020FFF74CFE01
:100730000028FAD04FF480410020FFF7E0FD00F0E0
:100740009FF805B000BD1CB501213F2000F05EF907
:1007500000A800F0D5FA48F20E7000F083F8DFF838
:100760003C4100F084F80B22012100F086F80B22B6
:10077000022100F082F800F07EF80B22082100F040
:100780007CF80B22092100F078F80B220A2100F0F6
:1007900074F80B220F2100F070F84FF6387000F05B
:1007A00061F8DFF8FC4000F062F800F064F80B221A
:1007B000042100F062F80B22052100F05EF80B2204
:1007C000082100F05AF80B22092100F056F80B22FC
:1007D0000A2100F052F80B220B2100F04EF80B22F8
:1007E0000C2100F04AF80B220D2100F046F80B22F4
:1007F0000E2100F042F80B220F2100F03EF840F6E7
:10080000CF7000F02FF8DFF89C4000F030F80B229A
:10081000002100F032F80B22012100F02EF80B220B
:10082000022100F02AF800F026F80B22062100F041
:1008300024F80B22072100F020F80B22082100F0F9
:100840001CF80B22092100F018F80B220A2100F0F5
:1008500014F80B22114600F010F800213F2000F0A0
:10086000D5F813BD009002208DF80400704700A950
:10087000204600F0B7B90B220321204600F04CBA05
:1008800080B50420FFF7A0FD0028FAD140210648DA
:1008900000F0FAFABDE80140FFF78FBD000002400A
:1008A00000040240000802401424004010B5040077
:1008B0001CBF012C052C02D0F42100F053F8DFF806
:1008C000600236E010B5040018BFB4F5005F11D027
:1008D000B4F5804F18BFB4F5C04F0BD0B4F5004F3E
:1008E0001CBFB4F5204FB4F5404F03D04FF4A671B0
:1008F00000F038F8DFF82C02016821F4604135E09F
:1009000010B5040018BF012C03D04FF4D27100F0D1
:1009100029F8DFF81402046010BD10B504001CBFF4
:10092000012C052C03D040F2BD1100F01BF8DFF8BC
:10093000FC0100210170047010BD10B5040018BF47
:10094000012C07D0022C18BF032C03D040F2B72192
:1009500000F008F8DFF8D8010168890854EA81013D
:10096000016010BD0FF2F810FFF71EBE21430160B9
:1009700010BD10B50446B4F5803F18BFB4F5003F74
:1009800012D0B4F5403F1CBFDFF8A80184420BD061
:10099000DFF8A40184421CBFDFF8A001844203D029
:1009A00040F2E131FFF7DEFFDFF8700104F440317F
:1009B000B1F5403F06D1016821F0C04104F0C042CA
:1009C00011430160416B21F440314163416B04F4F8
:1009D00040321143416310BD10B5040018BF012C13
:1009E00003D040F20341FFF7BDFFDFF8540104607C
:1009F00010BD10B5040018BF012C03D040F2134104
:100A0000FFF7B0FFDFF83C01046010BDF8B5044605
:100A10000D460FF24C16DFF83001044200D11CB92C
:100A200040F22F4100F048F8DFF8207145B1012D68
:100A300003D04FF4866100F03FF83868204301E0AE
:100A40003868A0433860F1BDF8B504460D460FF292
:100A500010163F48044200D11CB940F2514100F049
:100A60002BF83C4F45B1012D03D040F2524100F02C
:100A700023F83868204301E03868A0433860F1BDAE
:100A8000F8B504460D460FF2D8063348044200D1AB
:100A90001CB940F27C4100F00FF8304F45B1012DF8
:100AA00003D040F27D4100F007F83868204301E0B0
:100AB0003868A0433860F1BD3046FFF775BD38B5E2
:100AC00004460025212C18BF312C17D0292C18BF23
:100AD000392C13D0492C18BF412C0FD05A2C18BFD9
:100AE0005B2C0BD05C2C18BF5D2C07D05E2C18BF84
:100AF0005F2C03D040F2B651FFF734FF074861097D
:100B000001290CBF0068406B012104F01F029140D5
:100B1000084218BF0125284632BD000000380240B7
:100B20000238024004380240000047423538024093
:100B3000083802400000032000000340000003606A
:100B4000D8064742DC064742C06FFFFE1C38024011
:100B5000E2ADFFFF20380240C8B5194F24380240EB
:100B6000433A5C30304669726D77617265576F72D7
:100B70006B696E6741436861755C576F726B696E34
:100B8000675C53544D33324C5F446973636F7665D1
:100B900072795F4669726D776172655F5061636BF0
:100BA0005F56312E302E325C4C696272617269651B
:100BB000735C53544D33324C3178785F53746450C6
:100BC00065726970685F4472697665725C7372639E
:100BD0005C73746D33326C3178785F7263632E634B
:100BE000000000002DE9F04704460D4600260FF2F4
:100BF0001429DFF8F80184421CBFDFF8F4018442B5
:100C000012D0DFF8F00184421CBFDFF8EC0184420F
:100C10000AD0DFF8E80184421CBFDFF8E401844217
:100C200002D0C12100F069F8286810B9C22100F093
:100C300064F82879002818BF012806D0022818BFB8
:100C4000032802D0C32100F058F8E87930B1012818
:100C500018BF022802D0C42100F04FF8012000FA8A
:100C600006F8286808EA0000404541D177000320D3
:100C7000B8406FEA000A20680AEA00002060206895
:100C80002979B940084320602879012818BF022833
:100C900025D16879002818BF012806D0022818BF7E
:100CA000032802D0D82100F028F8A0680AEA000042
:100CB000A060A0686979B9400843A060A8790028BD
:100CC00018BF012802D0DF2100F017F8A08820EA21
:100CD0000800A080A088A979B1400843A080E068FE
:100CE0000AEA0000E060E068E979B9400843E060A2
:100CF000761C102EB2D3BDE8F0874846FFF754BCEF
:100D00004FF6FF7101600021017141718171C17164
:100D100070473846FFF748BCF8B506460D461446FE
:100D20000FF2E007314886421CBF314886420FD09F
:100D3000304886421CBF3048864209D02F48864240
:100D40001CBF2F48864203D040F20921FFF7E1FF84
:100D5000002D18BF012D1FD0022D18BF032D1BD051
:100D6000042D18BF052D17D0062D18BF072D13D041
:100D7000082D18BF092D0FD00A2D18BF0B2D0BD031
:100D80000C2D18BF0D2D07D00E2D18BF0F2D03D021
:100D900040F20A21FFF7BDFF002C18BF012C14D030
:100DA000022C18BF032C10D0042C18BF052C0CD01B
:100DB000072C18BF0A2C08D00B2C1CBF0E2C0F2C94
:100DC00003D040F20B21FFF7A4FFE81006EB8000F0
:100DD00005F007018900026A0F238B409A430262E3
:100DE000026A04FA01F111430162F1BD0000024000
:100DF0000004024000080240000C024000100240C3
:100E000000140240433A5C30304669726D7761727B
:100E100065576F726B696E6741436861755C576FA8
:100E2000726B696E675C53544D33324C5F44697327
:100E3000636F766572795F4669726D776172655F1F
:100E40005061636B5F56312E302E325C4C6962729A
:100E500061726965735C53544D33324C3178785FFD
:100E60005374645065726970685F44726976657224
:100E70005C7372635C73746D33326C3178785F6766
:100E800070696F2E63000000002200F001B80000BE
:100E900000B500BF130096469446103928BFA0E85D
:100EA0000C50FAD85FEA417C28BF0CC048BF40F81C
:100EB000042BC90728BF20F8022B48BF00F8012BDC
:100EC00000BD000082B02F48016841F480710160CC
:100ED00081682D4A1140816001682C4A11400160EF
:100EE000016821F480210160816821F47D01816025
:100EF0000021C16001910091016841F00101016090
:100F0000016801F0020100910199491C01910099C9
:100F100019B90199B1F5A06FF2D10168490801F042
:100F200001010091009901292AD119490A6842F06A
:100F300004020A600A6842F002020A600A6842F08B
:100F400001020A60416A41F08051416211494FF447
:100F500000620A604A68D206FCD4816881608168B8
:100F60008160816881608168890889008160816809
:100F700041F001018160816801F00C010429FAD17E
:100F800002B07047003802400CC0FF88FEFFFEEE42
:100F9000003C0240007000400FF20400FFF704BB69
:100FA000433A5C30304669726D77617265576F7293
:100FB0006B696E6741436861755C576F726B696EF0
:100FC000675C53544D33324C5F446973636F76658D
:100FD00072795F4669726D776172655F5061636BAC
:100FE0005F56312E302E325C4C69627261726965D7
:100FF000735C53544D33324C3178785F5374645082
:1010000065726970685F4472697665725C73726359
:101010005C73746D33326C3178785F7274632E63F5
:101020000000000010B5040002D034F43C3003D0BE
:1010300040F62301FFF7B0FF004801E00C28004014
:101040002103090C41F08001026802F0800262EA8B
:101050000101016010BD00000FF22400FFF7A4BAE7
:1010600010B50446E00DC00500D11CB94FF49271D3
:10107000FFF7F2FF0148046010BD000014040140B6
:10108000433A5C30304669726D77617265576F72B2
:101090006B696E6741436861755C576F726B696E0F
:1010A000675C53544D33324C5F446973636F7665AC
:1010B00072795F4669726D776172655F5061636BCB
:1010C0005F56312E302E325C4C69627261726965F6
:1010D000735C53544D33324C3178785F53746450A1
:1010E00065726970685F4472697665725C73726379
:1010F0005C73746D33326C3178785F657874692E07
:10110000630000007047FEE7FEE7FEE7FEE7FEE74C
:10111000FEE7FEE7FFF734BA0120FFF7A1BF80B575
:101120004FF48040FFF77EFF4FF48010BDE802408F
:10113000FFF796BF10B5074979441831064C7C4437
:10114000163404E0081D0A68511888470146A14278
:10115000F8D110BD08000000140000004FF4FFFF9C
:1011600028000000000000200000000000F009F846
:10117000002801D0FFF7DEFF0020FFF78DF900F017
:1011800002F80120704700F001B800000746384619
:1011900000F002F8FBE70000C046C046024A11001A
:1011A0001820ABBEFBE700BF2600020001488047C5
:1011B00001480047C50E0008BD110008C046C046E2
:1011C000C046C046FFF7D2FFFFF79CBFFFF79BBFAB
:1011D000FFF79ABFFFF799BFFFF798BFFFF797BFD9
:1011E000FFF796BFFFF795BFFFF794BFFFF7FEBF6E
:1011F000FFF7FEBFFFF7FEBFFFF791BFFFF7FEBF90
:10120000FFF7FEBFFFF788BFFFF7FEBFFFF7FEBF88
:10121000FFF7FEBFFFF7FEBFFFF7FEBFFFF7FEBF02
:10122000FFF7FEBFFFF7FEBFFFF7FEBFFFF7FEBFF2
:10123000FFF7FEBFFFF7FEBFFFF7FEBFFFF7FEBFE2
:10124000FFF7FEBFFFF7FEBFFFF7FEBFFFF7FEBFD2
:10125000FFF7FEBFFFF7FEBFFFF7FEBFFFF7FEBFC2
:10126000FFF7FEBFFFF7FEBFFFF7FEBFFFF7FEBFB2
:10127000FFF7FEBFFFF7FEBFFFF7FEBFFFF7FEBFA2
:10128000FFF7FEBFFFF7FEBFFFF7FEBFFFF7FEBF92
:10129000FFF7FEBFFFF7FEBFFFF7FEBFFFF7FEBF82
:04000005080011BD21
:00000001FF
